{
  "_format": "hh-sol-artifact-1",
  "contractName": "Marketplace",
  "sourceName": "contracts/Marketplace.sol",
  "abi": [
    {
      "anonymous": false,
      "inputs": [
        {
          "indexed": false,
          "internalType": "uint256",
          "name": "id",
          "type": "uint256"
        },
        {
          "indexed": false,
          "internalType": "address",
          "name": "buyer",
          "type": "address"
        }
      ],
      "name": "ItemBought",
      "type": "event"
    },
    {
      "anonymous": false,
      "inputs": [
        {
          "indexed": false,
          "internalType": "uint256",
          "name": "id",
          "type": "uint256"
        },
        {
          "indexed": false,
          "internalType": "string",
          "name": "name",
          "type": "string"
        },
        {
          "indexed": false,
          "internalType": "uint256",
          "name": "price",
          "type": "uint256"
        },
        {
          "indexed": false,
          "internalType": "address",
          "name": "seller",
          "type": "address"
        }
      ],
      "name": "ItemListed",
      "type": "event"
    },
    {
      "inputs": [
        {
          "internalType": "uint256",
          "name": "_id",
          "type": "uint256"
        }
      ],
      "name": "buyItem",
      "outputs": [],
      "stateMutability": "payable",
      "type": "function"
    },
    {
      "inputs": [],
      "name": "itemCount",
      "outputs": [
        {
          "internalType": "uint256",
          "name": "",
          "type": "uint256"
        }
      ],
      "stateMutability": "view",
      "type": "function"
    },
    {
      "inputs": [
        {
          "internalType": "uint256",
          "name": "",
          "type": "uint256"
        }
      ],
      "name": "items",
      "outputs": [
        {
          "internalType": "uint256",
          "name": "id",
          "type": "uint256"
        },
        {
          "internalType": "string",
          "name": "name",
          "type": "string"
        },
        {
          "internalType": "uint256",
          "name": "price",
          "type": "uint256"
        },
        {
          "internalType": "address payable",
          "name": "seller",
          "type": "address"
        },
        {
          "internalType": "address payable",
          "name": "buyer",
          "type": "address"
        }
      ],
      "stateMutability": "view",
      "type": "function"
    },
    {
      "inputs": [
        {
          "internalType": "string",
          "name": "_name",
          "type": "string"
        },
        {
          "internalType": "uint256",
          "name": "_price",
          "type": "uint256"
        }
      ],
      "name": "listItem",
      "outputs": [],
      "stateMutability": "nonpayable",
      "type": "function"
    }
  ],
  "bytecode": "0x60806040526000805534801561001457600080fd5b50610dce806100246000396000f3fe60806040526004361061003f5760003560e01c80636bfb0d01146100445780638511c9371461006f578063bfb231d214610098578063e7fb74c7146100d9575b600080fd5b34801561005057600080fd5b506100596100f5565b6040516100669190610a71565b60405180910390f35b34801561007b57600080fd5b50610096600480360381019061009191906107ae565b6100fb565b005b3480156100a457600080fd5b506100bf60048036038101906100ba9190610802565b6102c4565b6040516100d0959493929190610b01565b60405180910390f35b6100f360048036038101906100ee9190610802565b6103c2565b005b60005481565b6000811161013e576040517f08c379a0000000000000000000000000000000000000000000000000000000008152600401610135906109d1565b60405180910390fd5b60008081548092919061015090610c9a565b91905055506040518060a0016040528060005481526020018381526020018281526020013373ffffffffffffffffffffffffffffffffffffffff168152602001600073ffffffffffffffffffffffffffffffffffffffff1681525060016000805481526020019081526020016000206000820151816000015560208201518160010190805190602001906101e592919061068e565b506040820151816002015560608201518160030160006101000a81548173ffffffffffffffffffffffffffffffffffffffff021916908373ffffffffffffffffffffffffffffffffffffffff16021790555060808201518160040160006101000a81548173ffffffffffffffffffffffffffffffffffffffff021916908373ffffffffffffffffffffffffffffffffffffffff1602179055509050507f16244e47af8a7d2c923faa2cab44315c0514c7aa830682bbb9cc8f0d37ad75486000548383336040516102b89493929190610ab5565b60405180910390a15050565b60016020528060005260406000206000915090508060000154908060010180546102ed90610c68565b80601f016020809104026020016040519081016040528092919081815260200182805461031990610c68565b80156103665780601f1061033b57610100808354040283529160200191610366565b820191906000526020600020905b81548152906001019060200180831161034957829003601f168201915b5050505050908060020154908060030160009054906101000a900473ffffffffffffffffffffffffffffffffffffffff16908060040160009054906101000a900473ffffffffffffffffffffffffffffffffffffffff16905085565b6000600160008381526020019081526020016000209050600081600001541180156103f35750600054816000015411155b610432576040517f08c379a000000000000000000000000000000000000000000000000000000000815260040161042990610a51565b60405180910390fd5b8060020154341015610479576040517f08c379a0000000000000000000000000000000000000000000000000000000008152600401610470906109f1565b60405180910390fd5b600073ffffffffffffffffffffffffffffffffffffffff168160040160009054906101000a900473ffffffffffffffffffffffffffffffffffffffff1673ffffffffffffffffffffffffffffffffffffffff161461050c576040517f08c379a000000000000000000000000000000000000000000000000000000000815260040161050390610a31565b60405180910390fd5b3373ffffffffffffffffffffffffffffffffffffffff168160030160009054906101000a900473ffffffffffffffffffffffffffffffffffffffff1673ffffffffffffffffffffffffffffffffffffffff16141561059f576040517f08c379a000000000000000000000000000000000000000000000000000000000815260040161059690610a11565b60405180910390fd5b8060030160009054906101000a900473ffffffffffffffffffffffffffffffffffffffff1673ffffffffffffffffffffffffffffffffffffffff166108fc82600201549081150290604051600060405180830381858888f1935050505015801561060d573d6000803e3d6000fd5b50338160040160006101000a81548173ffffffffffffffffffffffffffffffffffffffff021916908373ffffffffffffffffffffffffffffffffffffffff1602179055507f0f9cbfaca7747e91d313d3856ce813b28768fb717ccf84591115f65aae74e4918233604051610682929190610a8c565b60405180910390a15050565b82805461069a90610c68565b90600052602060002090601f0160209004810192826106bc5760008555610703565b82601f106106d557805160ff1916838001178555610703565b82800160010185558215610703579182015b828111156107025782518255916020019190600101906106e7565b5b5090506107109190610714565b5090565b5b8082111561072d576000816000905550600101610715565b5090565b600061074461073f84610b8c565b610b5b565b90508281526020810184848401111561075c57600080fd5b610767848285610c26565b509392505050565b600082601f83011261078057600080fd5b8135610790848260208601610731565b91505092915050565b6000813590506107a881610d81565b92915050565b600080604083850312156107c157600080fd5b600083013567ffffffffffffffff8111156107db57600080fd5b6107e78582860161076f565b92505060206107f885828601610799565b9150509250929050565b60006020828403121561081457600080fd5b600061082284828501610799565b91505092915050565b61083481610bea565b82525050565b61084381610bd8565b82525050565b600061085482610bbc565b61085e8185610bc7565b935061086e818560208601610c35565b61087781610d70565b840191505092915050565b600061088f601e83610bc7565b91507f5072656973206d7573732067726f657373657220616c732030207365696e00006000830152602082019050919050565b60006108cf601a83610bc7565b91507f4e696368742067656e756720457468657220676573656e6465740000000000006000830152602082019050919050565b600061090f601c83610bc7565b91507f5665726b616575666572206b616e6e206e69636874206b617566656e000000006000830152602082019050919050565b600061094f601883610bc7565b91507f417274696b656c2062657265697473207665726b6175667400000000000000006000830152602082019050919050565b600061098f601783610bc7565b91507f417274696b656c20657869737469657274206e696368740000000000000000006000830152602082019050919050565b6109cb81610c1c565b82525050565b600060208201905081810360008301526109ea81610882565b9050919050565b60006020820190508181036000830152610a0a816108c2565b9050919050565b60006020820190508181036000830152610a2a81610902565b9050919050565b60006020820190508181036000830152610a4a81610942565b9050919050565b60006020820190508181036000830152610a6a81610982565b9050919050565b6000602082019050610a8660008301846109c2565b92915050565b6000604082019050610aa160008301856109c2565b610aae602083018461083a565b9392505050565b6000608082019050610aca60008301876109c2565b8181036020830152610adc8186610849565b9050610aeb60408301856109c2565b610af8606083018461083a565b95945050505050565b600060a082019050610b1660008301886109c2565b8181036020830152610b288187610849565b9050610b3760408301866109c2565b610b44606083018561082b565b610b51608083018461082b565b9695505050505050565b6000604051905081810181811067ffffffffffffffff82111715610b8257610b81610d41565b5b8060405250919050565b600067ffffffffffffffff821115610ba757610ba6610d41565b5b601f19601f8301169050602081019050919050565b600081519050919050565b600082825260208201905092915050565b6000610be382610bfc565b9050919050565b6000610bf582610bfc565b9050919050565b600073ffffffffffffffffffffffffffffffffffffffff82169050919050565b6000819050919050565b82818337600083830152505050565b60005b83811015610c53578082015181840152602081019050610c38565b83811115610c62576000848401525b50505050565b60006002820490506001821680610c8057607f821691505b60208210811415610c9457610c93610d12565b5b50919050565b6000610ca582610c1c565b91507fffffffffffffffffffffffffffffffffffffffffffffffffffffffffffffffff821415610cd857610cd7610ce3565b5b600182019050919050565b7f4e487b7100000000000000000000000000000000000000000000000000000000600052601160045260246000fd5b7f4e487b7100000000000000000000000000000000000000000000000000000000600052602260045260246000fd5b7f4e487b7100000000000000000000000000000000000000000000000000000000600052604160045260246000fd5b6000601f19601f8301169050919050565b610d8a81610c1c565b8114610d9557600080fd5b5056fea264697066735822122097964dffa402fd18e85df334c3b78a9bf5420ee04474a86618af05de9a7f318b64736f6c63430008000033",
  "linkReferences": {},
  "deployedLinkReferences": {}
}