{
  "_format": "hh-sol-artifact-1",
  "contractName": "MarketplacePayment",
  "sourceName": "contracts/MarketplacePayment.sol",
  "abi": [
    {
      "anonymous": false,
      "inputs": [
        {
          "indexed": true,
          "internalType": "address",
          "name": "seller",
          "type": "address"
        },
        {
          "indexed": true,
          "internalType": "address",
          "name": "buyer",
          "type": "address"
        },
        {
          "indexed": false,
          "internalType": "uint256",
          "name": "amount",
          "type": "uint256"
        }
      ],
      "name": "Purchase",
      "type": "event"
    },
    {
      "stateMutability": "payable",
      "type": "fallback"
    },
    {
      "inputs": [
        {
          "internalType": "address payable",
          "name": "seller",
          "type": "address"
        }
      ],
      "name": "purchase",
      "outputs": [],
      "stateMutability": "payable",
      "type": "function"
    },
    {
      "stateMutability": "payable",
      "type": "receive"
    }
  ],
  "bytecode": "0x608060405234801561001057600080fd5b506001600081905550610656806100286000396000f3fe6080604052600436106100225760003560e01c806325b31a971461009d57610062565b36610062576040517f08c379a000000000000000000000000000000000000000000000000000000000815260040161005990610346565b60405180910390fd5b6040517f08c379a000000000000000000000000000000000000000000000000000000000815260040161009490610346565b60405180910390fd5b6100b760048036038101906100b291906103c9565b6100b9565b005b6100c1610290565b60003411610104576040517f08c379a00000000000000000000000000000000000000000000000000000000081526004016100fb90610442565b60405180910390fd5b600073ffffffffffffffffffffffffffffffffffffffff168173ffffffffffffffffffffffffffffffffffffffff1603610173576040517f08c379a000000000000000000000000000000000000000000000000000000000815260040161016a906104ae565b60405180910390fd5b60008173ffffffffffffffffffffffffffffffffffffffff1634604051610199906104ff565b60006040518083038185875af1925050503d80600081146101d6576040519150601f19603f3d011682016040523d82523d6000602084013e6101db565b606091505b505090508061021f576040517f08c379a000000000000000000000000000000000000000000000000000000000815260040161021690610560565b60405180910390fd5b3373ffffffffffffffffffffffffffffffffffffffff168273ffffffffffffffffffffffffffffffffffffffff167f22e3ae3a20c49dce14046235895c7a3ffc0a6a5f3577c370177ad45fa619485d3460405161027c9190610599565b60405180910390a35061028d6102df565b50565b6002600054036102d5576040517f08c379a00000000000000000000000000000000000000000000000000000000081526004016102cc90610600565b60405180910390fd5b6002600081905550565b6001600081905550565b600082825260208201905092915050565b7f446972656374207472616e7366657273206e6f7420616c6c6f77656400000000600082015250565b6000610330601c836102e9565b915061033b826102fa565b602082019050919050565b6000602082019050818103600083015261035f81610323565b9050919050565b600080fd5b600073ffffffffffffffffffffffffffffffffffffffff82169050919050565b60006103968261036b565b9050919050565b6103a68161038b565b81146103b157600080fd5b50565b6000813590506103c38161039d565b92915050565b6000602082840312156103df576103de610366565b5b60006103ed848285016103b4565b91505092915050565b7f4573206d75737320457468657220676573656e6465742077657264656e000000600082015250565b600061042c601d836102e9565b9150610437826103f6565b602082019050919050565b6000602082019050818103600083015261045b8161041f565b9050919050565b7f53656c6c65722061646472657373206d757374206e6f74206265207a65726f00600082015250565b6000610498601f836102e9565b91506104a382610462565b602082019050919050565b600060208201905081810360008301526104c78161048b565b9050919050565b600081905092915050565b50565b60006104e96000836104ce565b91506104f4826104d9565b600082019050919050565b600061050a826104dc565b9150819050919050565b7f4661696c656420746f2073656e64204574686572000000000000000000000000600082015250565b600061054a6014836102e9565b915061055582610514565b602082019050919050565b600060208201905081810360008301526105798161053d565b9050919050565b6000819050919050565b61059381610580565b82525050565b60006020820190506105ae600083018461058a565b92915050565b7f5265656e7472616e637947756172643a207265656e7472616e742063616c6c00600082015250565b60006105ea601f836102e9565b91506105f5826105b4565b602082019050919050565b60006020820190508181036000830152610619816105dd565b905091905056fea2646970667358221220b9966490402973f398ad5f152ec673e676a118d5f32782ce4ed9f5c7563aeb1364736f6c63430008140033",
  "linkReferences": {},
  "deployedLinkReferences": {}
}